:100000000C9434000C9446000C9446000C9446006A
:100010000C9446000C9446000C9446000C94460048
:100020000C9446000C9446000C9446000C94460038
:100030000C9446000C9446000C9470000C944600FE
:100040000C9446000C9446000C9446000C94460018
:100050000C9446000C9446000C9446000C94460008
:100060000C9446000C94460011241FBECFEFD8E03C
:10007000DEBFCDBF21E0A0E0B1E001C01D92A23003
:10008000B207E1F70E9448000C94B1000C94000004
:1000900084B1866284B9F8940E9494000E949C0006
:1000A0007894FFCF80910001909101010196909387
:1000B0000101809300018436910520F01092010126
:1000C000109200018091000190910101C29720F4EB
:1000D00085B1806285B9089585B18F7D85B9089510
:1000E0001F920F920FB60F9211242F933F934F93AD
:1000F0005F936F937F938F939F93AF93BF93EF9390
:10010000FF930E945200FF91EF91BF91AF919F9199
:100110008F917F916F915F914F913F912F910F90B0
:100120000FBE0F901F90189582E084BD85BD87BDDE
:1001300080936E00789408958FE790E09093890003
:100140008093880090938B0080938A0081EA80934B
:1001500080008AE0809381001092850010928400D4
:060160000895F894FFCFA2
:00000001FF
