S010000054726162616A6F342E737265631D
S11300000C9434000C9451000C9451000C94510045
S11300100C9451000C9451000C9451000C94510018
S11300200C9451000C9451000C9451000C94510008
S11300300C9451000C9451000C94BD000C9451008C
S11300400C9451000C9451000C94E1000C94510058
S11300500C9451000C9451000C9451000C945100D8
S11300600C9451000C94510011241FBECFEFD8E022
S1130070DEBFCDBF11E0A0E0B1E0E8E3F3E002C0F1
S113008005900D92A431B107D9F721E0A4E1B1E0C4
S113009001C01D92A931B207E1F70E9453000C94EC
S11300A09A010C94000084B1866284B987E60E94A8
S11300B034010E943E010E9444010E944A01F894C6
S11300C00E9474010E947D0178948091000188232C
S11300D071F080E090E00E9495018FEF90E00E9423
S11300E090018FEF90E09093180180931701809115
S11300F00201882371F080E090E00E9490018FEF6C
S113010090E00E9495018FEF90E090931801809306
S11301101701809101018823C1F28FEF90E00E94C2
S113012090018FEF90E00E949501109218011092B7
S11301301701CBCF809114019091150101969093F2
S11301401501809314018F3F910520F01092150141
S1130150109214012091140130911501809117011E
S1130160909118012817390720F485B1806285B968
S1130170089585B18F7D85B908951F920F920FB6AA
S11301800F9211242F933F934F935F936F937F9319
S11301908F939F93AF93BF93EF93FF930E949A0023
S11301A0FF91EF91BF91AF919F918F917F916F914B
S11301B05F914F913F912F910F900FBE0F901F9021
S11301C018951F920F920FB60F9211242F933F93FD
S11301D04F935F936F937F938F939F93AF93BF934B
S11301E0EF93FF938091C6008093160180911601CE
S11301F0823459F483E091E00E94580181E08093B5
S113020002011092010110920001809116018235C1
S113021059F48AE091E00E9458011092020181E0B1
S1130220809301011092000180911601873459F4E2
S11302308EE091E00E945801109202011092010197
S113024081E080930001FF91EF91BF91AF919F9165
S11302508F917F916F915F914F913F912F910F906B
S11302600FBE0F901F9018951092C10096E09093C6
S1130270C2001092C5008093C4000895E1ECF0E040
S11302808081886080830895E1ECF0E08081806162
S113029080830895E1ECF0E0808180688083089594
S11302A08091C00085FFFCCF08958093C600089517
S11302B0EF92FF920F931F93CF937C01C0E007C08E
S11302C00E945001F80180810E945501CF5F87018F
S11302D00C0F111DF80180818111F2CFCF911F9174
S11302E00F91FF90EF90089582E084BD85BD94E165
S11302F097BD80936E0078940895109289001092AF
S1130300880010928B0010928A0081EA809380000A
S113031089E08093810010928500109284000895F2
S11303209093890080938800089590938B00809324
S10B03308A000895F894FFCF40
S1130338010101626C756565650072656400677228
S107034865656E0075
S9030000FC
