:100000000C9434000C9451000C9451000C94510049
:100010000C9451000C9451000C9451000C9451001C
:100020000C9451000C9451000C9451000C9451000C
:100030000C9451000C9451000C94BD000C94510090
:100040000C9451000C9451000C94E1000C9451005C
:100050000C9451000C9451000C9451000C945100DC
:100060000C9451000C94510011241FBECFEFD8E026
:10007000DEBFCDBF11E0A0E0B1E0EEE3F3E002C0EF
:1000800005900D92A631B107D9F721E0A6E1B1E0C4
:1000900001C01D92A931B207E1F70E9453000C94F0
:1000A0009D010C94000084B1866284B987E60E94A9
:1000B00034010E943E010E9444010E944A01F894CA
:1000C0000E9474010E947E0178948091020188232D
:1000D00071F080E090E00E9498018FEF90E00E9424
:1000E000930184E690E09093010180930001809158
:1000F0000401882371F080E090E00E9493018FEF6B
:1001000090E00E94980184E690E090930101809332
:100110000001809103018823C1F28FEF90E00E94DB
:1001200093018FEF90E00E949801109201011092CC
:100130000001CBCF80911601909117010196909309
:100140001701809316018436910520F01092170153
:100150001092160120911601309117018091000133
:10016000909101012817390720F485B1806285B983
:10017000089585B18F7D85B908951F920F920FB6AE
:100180000F9211242F933F934F935F936F937F931D
:100190008F939F93AF93BF93EF93FF930E949A0027
:1001A000FF91EF91BF91AF919F918F917F916F914F
:1001B0005F914F913F912F910F900FBE0F901F9025
:1001C00018951F920F920FB60F9211242F933F9301
:1001D0004F935F936F937F938F939F93AF93BF934F
:1001E000EF93FF938091C6008093180180911801CE
:1001F000823459F485E091E00E94580181E08093B7
:1002000004011092030110920201809118018235BD
:1002100059F48CE091E00E9458011092040181E0B1
:10022000809303011092020180911801873459F4E0
:1002300080E191E00E9458011092040110920301A4
:1002400081E080930201FF91EF91BF91AF919F9167
:100250008F917F916F915F914F913F912F910F906F
:100260000FBE0F901F9018951092C10096E09093CA
:10027000C2001092C5008093C4000895E1ECF0E044
:100280008081886080830895E1ECF0E08081806166
:1002900080830895E1ECF0E0808180688083089598
:1002A0008091C00085FFFCCF08958093C60008951B
:1002B000EF92FF920F931F93CF937C01C0E007C092
:1002C0000E945001F80180810E945501CF5F870193
:1002D0000C0F111DF80180818111F2CFCF911F9178
:1002E0000F91FF90EF90089582E084BD93E095BD5B
:1002F00099E197BD80936E00789408958FEF90E018
:10030000909389008093880090938B0080938A005B
:1003100081EA8093800089E08093810010928500BB
:100320001092840008959093890080938800089526
:0E03300090938B0080938A000895F894FFCF7D
:10033E006400010101626C7565656500726564009B
:06034E00677265656E0098
:00000001FF
